S015000045636F53617442757352544F532E737265635E
S11300000C9455400C9473400C9473400C945244DB
S11300100C9447440C9447440C9447440C94474430
S11300200C9447440C943C540C9473400C947340CB
S11300300C9473400C9473400C9473400C94734070
S11300400C9473400C9473400C941B4B0C947340AD
S11300500C9473400C9473400C9473400C94734050
S11300600C9473400C9473400C9473400C94734040
S11300700C9473400C9473400C9473400C94734030
S11300800C94674B0C9473400C94A94B0C947340E0
S11300900C947340864CFE4C764DD84D084E404E21
S11300A07C4E0D4F974F844C7750FEFEFAFEFAFEBD
S11300B0FEFEFEFEFEFEFEFEFAFEFEFEFAFEFEFA68
S11300C0FEFAFEFAFEFAFAFAFEFAFAFAF6FAFAFA80
S11300D0FAFAF6FAF6FAFAF6F6FAF6F6F6F2F6F6A8
S11300E0F6F2F6F2F6F2F6F2F2EAF2F2F2F2EAF2EC
S11300F0EAEAF2EAEAEAEAEAEAEAEAEAEAEAE6EA58
S1130100EAE6EAE6EAE6DEE6E6E6DEE6DEDEDEDEAF
S1130110DEDEDEDEDEDEDADEDADEDADEDAD6DADA1B
S1130120D6DAD6DAD2D2D6D6D2D2D2D2CED2D2CE93
S1130130CACECECACECAC6CACACAC6CAC2C6C6C22F
S1130140C6C2BEC2C2BEBEBEBEBABEBABEB6B6BAD3
S1130150B6BAB2B6B2B6B2AEB2B2AEB2AAAAAEAE87
S1130160AAA6AAA6AAA6A2A6A2A69EA2A29E9E9E4F
S11301709A9E9E969A969A969296969292928E921B
S11301808E8A8E8E8A868A8A8682868682867E7EFB
S1130190827E7A7E7E7A767A7A766E76766E6E6EE7
S11301A06E6E6A6E6E6A666A6A6662666662625ECF
S11301B0625E5E5A5E5A565A5A56525656524E52BB
S11301C04E4A4E4E4E464A464A424646423E423EBB
S11301D042363E3636363636363632362E322E2EC7
S11301E02A2E2E262A2A26222626221A22221A1AC3
S11301F01A1A031A1A031A1A1A1A031A1A031A03CE
S1130200031A03031A03030303030303030303038C
S113021003190303190319190319191903191919CE
S113022019191921212125252525292929292D2D8A
S11302302D2D312D2D31353135353535353D35358E
S11302403D413D3D4145414145454549454D494D6A
S113025049514D514D55515551595559555D59595E
S11302605D615D5D616161656165696569656D6952
S11302706D696D6D6D6D756D6D756D797579757D66
S113028079797D7D817D7D81858181818589858562
S113029089898D89898D8D8D918D91959191919576
S11302A099959595999D99999D999DA19DA19DA19A
S11302B0A5A1A1A5A5A5A5A9A5A9A5ADADA9A9ADCA
S11302C0ADB1ADADB1ADB5B1B1B5B1B5B5B9B5B50A
S11302D0B9B5B9BDB9B9BDB9BDC1BDBDBDC1BDC15A
S11302E0C5C1C1C5C1C5C1C5C9C5C5C9C5C9C9CDB2
S11302F0C9C9C9C9CDCDC9CDD1CDCDD1CDD1D1CD2E
S1130300D5D1D1D5D1D1D5D1D5D5D9D5D5D5D9D5A5
S1130310D9D5D9D9D5DDD9D9DDD9D9DDD9DDD9DD3D
S1130320DDDDDDDDDDDDDDDDDDDDDDDDDDDDDDDDF9
S1130330DDDDE5DDDDDDDDE5DDDDE5DDDDE5DDE5C1
S1130340E5DDE5DDE5E5E5E5DDE5E5E5E5E5E9E56D
S1130350E5E5E5E5E5E5E9E5E5E5E5E5E9E5E5E541
S1130360E5E5E9E5E5E5E5E5E9E5E5E5E5E5E5E531
S1130370E5DDE5E5E5E5E5E5E5E5DDE5E5E5DDE541
S1130380E5DDE5DDE5DDDDE5DDDDDDDDDDDDDDDD79
S1130390DDDDDDDDDDDDDDDDDDDDDDDDDDD9DDDD8D
S11303A0DDDDD9DDDDD9DDD9D9D9D5D9D9D9D9D5AD
S11303B0D9D9D5D5D5D9D1D1D5D5D5D1D5D1D1D1F5
S11303C0CDD1D1D1CDD1CDCDCDC9CDCDCDC9CDC955
S11303D0C9C5C9C9C9C5C9C5C5C1C5C5C5C1C1C5C1
S11303E0BDC1C1BDC1BDC1B9BDBDB9BDB9B9B9B941
S11303F0B5B9B5B9B5B1B5B5B1B5B1ADB1B1ADB1C9
S1130400ADA9ADADA9ADA9A5A9A9A5A9A5A1A5A564
S1130410A1A1A1A19DA19DA1999D999D999599990C
S113042099959591959591918D91918D91898D89BC
S11304308D89858985898581858581817D81817D78
S1130440797D7D797D75797579756D75756D6D6D50
S11304506D6D6D696D696D65696965656561656118
S113046061615D615D595D595D55595559515555E8
S113047051554D4D514D494D4D49494549494145C8
S11304804541413D41413D353D3D353535353531BC
S11304903535312D313131292D2D2929252929258C
S11304A021252125192119191919191903191903B4
S11304B01919191903191903190319030319030342
S11304C0190303030303030303030303031A0303CB
S11304D01A031A031A1A031A1A1A031A1A1A1A1AD4
S11304E01A2222222222262626262A2A2A2A2E2EA8
S11304F02E2A322E2E3236323236323636363636D0
S11305003E363E3E3E423E42464246424A464A46C7
S11305104E4A4A4E4A524E524E5652525656565AC7
S1130520565A565E5E5A5E5E625E5E6266626266DF
S1130530666A66666A6E6A6A6E6A6E6E6E6E6E76FB
S11305406E766E767A7676767A7E7A7A7E7A7E821F
S11305507E7E828286828286828A868A868A868E47
S11305608A8E8A8E928E8E8E92929692929296967F
S1130570969A96969A969E9A9E9A9A9EA29E9E9EC7
S1130580A2A29EA6A2A6A2A2A6A6AAA6A6AAA6AA17
S1130590AAAEAAAAAAAEAAAEB2AEAEB2AEB2AEB27B
S11305A0B6B2B2B6B2B2B6B6BAB6B6B6BAB6BAB6EB
S11305B0BABEBABABEBABABEBEBABEC2BEC2BEBE67
S11305C0C2BEC2C2BEC6C2C2C6C2C2C6C2C6C6C2FB
S11305D0C6CAC6C6C6CAC6C6CAC6CAC6CACACACA97
S11305E0CECACACACACECACACECACECACECECECA4B
S11305F0CECECED2CECECECED2CECECED2CECED207
S1130600CED2CED2CED2D2CED2D2CED2D2CED2D2DE
S1130610D2D2CED2D2D2D2D2D2CED2D2D2D2D2D2BE
S1130620CED2D2D2D2D2CED2D2D2D2CED2D2D2CEB6
S1130630D2D2CED2CED2CED2CED2CED2CECECED2B6
S1130640CECECECECACECECECECECECACECECACED2
S1130650CACECACACECACACAC6CACACAC6CACAC6FA
S1130660CAC6CAC6C6C6C2C6C6C6C6C2C6C6C2C22E
S1130670C6C2C2BEC2C2BEC2BEC2BEC2BEBABEBE76
S1130680BABEBEBABEBABAB6BABABAB6BAB6BAB6CA
S1130690B2B6B6B2B6B2B6B2B2AEB2B2B2AEAEB232
S11306A0AEAAAEAAAEAEAAAAA6AAAAAAA6AAA6A2AA
S11306B0A6A6A6A2A6A29EA2A2A29EA29E9A9E9E22
S11306C09A9E9A9A969A9A969A96929696929692B2
S11306D08E9292928E8E8A8E8E8E8A8A8A868A8A4A
S11306E0868682868682867E82827E827E7A7E7EEE
S11306F07A7E767A7A767A766E766E766E6E6E6EAE
S11307006E6E6E6E6A6E6A666A6A6A666266666251
S1130710665E62625E625A5E5A5E5A565A5A5A5609
S113072052565652524E52524E524A4A4E4A4A4AD1
S1130730464A4642464642463E423E42363E3E36A1
S1130740363636363636323632362E322E322E2A79
S11307502E2E2A262A2A2A26222626221A22221A3D
S1130760221A1A1A1A1A031A031A1A1A1A1A031A22
S11307701A031A031A031A03031A030303031A03BB
S113078003030303030303030319030319031903F3
S11307901903191903191919190319191919191907
S11307A021212121212525252525292929292D2DE9
S11307B029292D312D312D31353131353535353529
S11307C0353D35353D3D413D3D3D41454145414545
S11307D049454549494D49494D4D514D4D514D5559
S11307E05551515559555955595D59595D59615D81
S11307F05D615D6165616561656965656965696DB1
S1130800696D696D6D6D6D6D6D6D756D6D756D7504
S11308107975797579797D7979797D7D817D7D8128
S11308207D81858181858185898585898589858D78
S1130830898D898D898D918D8D918D9191959191D0
S11308409195919599959595999599999D99999938
S11308509D999D9DA19D9D9DA19DA1A19DA5A1A5A4
S1130860A1A1A5A1A5A5A9A5A5A5A9A5A9A9A5A92C
S1130870ADA9A9ADA9A9ADADA9ADADB1ADADADB1B0
S1130880ADADB1B1ADB1B1B5B1B1B1B5B1B1B5B154
S1130890B5B1B5B5B5B5B9B5B5B5B5B9B5B5B9B5FC
S11308A0B9B5B9B9B9B5B9B9BDB9B9B9B9BDB9B9B4
S11308B0B9BDB9B9BDB9BDB9BDBDB9BDBDB9BDBD80
S11308C0BDB9BDBDBDBDBDBDBDB9BDBDBDC1BDBD58
S11308D0BDBDBDC1BDBDBDBDBDBDBDBDBDBDBDBD40
S11308E0BDBDB9BDBDBDBDBDBDBDBDBDBDB9BDBD3C
S11308F0BDBDB9BDBDB9BDBDB9BDB9BDB9BDB9B940
S1130900BDB9B9B9BDB9B9B5B9B9B5B9B9B9B9B557
S1130910B9B5B9B5B9B5B5B5B9B5B1B5B1B5B5B57B
S1130920B1B5B5B1B1B5B1B1B1ADB1B1B1ADB1B1AF
S1130930ADADB1ADADA9ADADADADA9ADA9A9ADA9F3
S1130940A5A9A9A9A5A9A5A9A5A5A1A5A5A5A5A147
S1130950A5A1A1A59DA19DA1A19DA19D9D999D9D9F
S1130960999D999D9995999995999599959195950B
S113097091959195918D918D918D918D898D8D8983
S11309808D898985898989858985818585818581FF
S1130990817D81817D817D797D7D797D797579798F
S11309A0797575796D6D75756D6D6D6D6D6D6D6D3B
S11309B0696D696D696569696965696165656165BF
S11309C0615D61615D5D6159595D5D595559595567
S11309D0595551555155514D51514D4D4D4D494D0F
S11309E0494D454549494541454145413D41413DC3
S11309F041353D3D353D3535353535353135313587
S1130A00312D312D312D292D292D29252929252532
S1130A102125252121211921192119191919190310
S1130A2019031919191919031919031919031903A0
S1130A301903031903031903030303030303030340
S1130A40030303030303031A03031A031A031A1AFF
S1130A50031A1A031A1A1A1A031A1A1A1A1A1A1A37
S1130A60222222222226262626262A2A2A2A2A2E1A
S1130A702E2A2A2E322E2E322E3632323632363666
S1130A80363636363E3636363E423E3E3E424246A6
S1130A90424246424A46464A464A4E4A4A4E4E4ACE
S1130AA052524E4E525652525652565A56565A5602
S1130AB05A5E5A5A5E5A5E625E5E625E6266626246
S1130AC06662666A6666666A6A666E6E6A6A6E6E92
S1130AD06E6E6E6E6E6E6E766E6E766E76767A76FE
S1130AE0767A767A7A7E7A7A7A7E7A7E827E7E8246
S1130AF07E827E8286828682828686868A868686B2
S1130B008A868A8A8E8A8A8A8E8A8E8E8E928E8E21
S1130B108E928E92928E96929692929692969696A5
S1130B20969A9696969A969A9A969A9E9A9E9A9A31
S1130B309E9A9E9A9E9E9EA29E9E9E9EA29EA29ECD
S1130B40A2A2A29EA6A2A2A6A2A2A2A6A2A6A2A671
S1130B50A6A2A6A6A6AAA6A6A6AAA6A6A6AAA6AA25
S1130B60A6AAA6AAAAAAA6AAAAAAAAAEAAAAAAAAE9
S1130B70AAAAAAAEAAAAAEAAAAAEAAAAAEAAAEAABD
S1130B80AEAAAEAAAEAEAAAEAEAAAEAAAEAEAEAA99
S1130B90AEAEAAAEAEAAAEAEAAAEAEAAAEAEAAAE85
S1130BA0AEAAAEAEAAAEAAAEAAAEAAAEAAAEAAAA81
S1130BB0AEAAAAAEAAAAAAAEAAAAAAAAA6AAAAAA89
S1130BC0AAAAA6AAAAAAA6AAA6AAA6AAA6A6AAA69D
S1130BD0A6A6A6A2A6A6A6A6A2A6A6A2A6A2A6A2C5
S1130BE0A2A2A69EA2A29EA2A2A29EA29E9EA29EF5
S1130BF09E9A9E9E9E9E9A9E9A9E9A9A9E9A969A35
S1130C009A969A969A969A9696929696929696927C
S1130C109296928E928E92928E928E8E8A8E8E8ED4
S1130C208E8A8A8E8A868A8A8A868A86868A828634
S1130C308286868282867E827E82827E7E827A7AA4
S1130C407E7E7A7E7A767A7A7A767A76766E767618
S1130C50766E6E766E6E6E6E6E6E6E6A6E6E6A6EA8
S1130C606A6A666A6A6A6666626666666266625E20
S1130C7062625E625E5A5E5E5E5A5A5E56565A5AA8
S1130C8056565256565256524E52524E524E4A4E44
S1130C904A4E4A4E464A464A4646424646464242DC
S1130CA03E42423E3E363E3E3E363E363636363690
S1130CB03632323636322E32322E322E2A2E2E2A28
S1130CC02E2A262A262A262226262622221A2222CC
S1130CD01A1A1A1A1A1A1A1A031A1A1A031A1A1A9E
S1130CE01A031A1A031A1A031A031A03031A030318
S1130CF01A030303031A0303030303030303030392
S1130D000303190303190303190319031919031915
S1130D101903191919190319191919191919192163
S1130D202121212121252525252525292925292577
S1130D302D29292D292D312D2D312D3135313135C7
S1130D4031353535353535353D353D353D3D413D1F
S1130D503D3D414145414145414549454549454957
S1130D604D4949494D494D514D514D514D555151A3
S1130D7055515555595555595559595D5959595DF7
S1130D805D615D5D5D615D61616561616561656553
S1130D90696565656965696D6969696D696D6D6DBB
S1130DA06D6D6D6D6D6D6D756D6D6D756D75757943
S1130DB075757575797579797D7979797D797D7DA3
S1130DC079817D7D817D7D81817D81858181858123
S1130DD081858185858589858585898589858989B3
S1130DE0898D8989898D89898D8D898D8D918D8D47
S1130DF08D8D918D8D91918D9191918D95959191EF
S1130E00919195919591959195959595959995959E
S1130E109595959995959995999599959999999562
S1130E20999999999D99999999999D9999999D9922
S1130E30999D99999D999D999D999D999D9D999DFE
S1130E409D999D9D999D9D999D9D999D9D9D999DE2
S1130E509D9D999D9D9D999D9D999D9D9D999D9DCE
S1130E60999D999D9D999D999D999D999D999D99CE
S1130E70999D9999999D99999999999599999999DA
S1130E8099999995999995999599959995959995EA
S1130E909595959195959595959195959195919112
S1130EA0959191918D919191918D91918D918D8D3E
S1130EB0918D8D898D8D898D8D898D898D89898976
S1130EC085898989858985898585898185818585BE
S1130ED08581818581817D8181817D817D817D7D0A
S1130EE0797D7D7D797D79797D7579797579797566
S1130EF0757575756D75756D756D6D6D6D6D6D6DE6
S1130F006D6D6D696D6D6D6D69696D656969656935
S1130F1065696561656561656165615D61615D61A5
S1130F205D5D595D5D5D595D595559595559555921
S1130F305155555155515151514D51514D4D494DA9
S1130F404D4D494D49454945494549414545414529
S1130F5041453D413D413D41353D3D353D353D35C5
S1130F6035353535353535313531352D31312D3151
S1130F702D2D292D2D2D29292529292529252125E1
S1130F80252125211921212119191919191919198D
S1130F900319031919191919191903191903191915
S1130FA00319031903190303190303190303031989
S1130FB00303030303030303030303030303031AE6
S1130FC003031A03031A031A031A031A1A031A1A35
S1130FD0031A1A1A1A1A031A1A1A1A1A1A1A1A2293
S1130FE02222222222222626262626262A262A26AD
S1130FF02A262E2A2A2E2A2E2E322E2E322E323611
S11310003232363236363636363636363E36363680
S11310103E363E423E3E3E42423E464246424246C4
S1131020464A4646464A4A464E4A4E4A4A4E4E5218
S11310304E4E4E524E5252565252525652565A5684
S113104056565A565A5A5E5A5A5A5E5A5E5A625EF0
S1131050625E5E625E626266626266626662666A60
S11310606666666A666A666A6E6A6A6A6E6A6E6AE4
S11310706E6E6E6E6E6E6E6E6E6E6E6E766E6E6E84
S1131080766E766E7676767A7676767A767A767AFC
S11310907A7A7E7A7A7A7A7E7A7A7E7E7A7E7E828C
S11310A07E7E827E7E827E827E8282828286828230
S11310B0828282868286828686828686868A8686E0
S11310C08686868A86868A868A868A868A8A8A8A9C
S11310D0868A8E8A8A8A8E8A8A8A8A8E8A8E8A8A60
S11310E08E8A8E8A8E8E8A8E8E8A8E8E8E8E8A8E30
S11310F08E8E8E8E8E8E928E8E8E8E8E8E8E8E8E08
S11311008E928E8E8E8E8E8E928E8E8E8E8E928EEF
S11311108E8E8E8E8E928E8E8E8E8E8E8E8E8E8EE7
S11311208E8A8E8E8E8E8E8E8E8E8E8E8A8E8E8EE3
S11311308A8E8E8A8E8E8A8E8A8E8A8A8E8A8A8EEB
S11311408A8A8A8A8A868A8A8A8A8A8A868A8A8607
S11311508A868A868A8686868A8682868686828623
S113116086868286828682828286827E8282827E4F
S113117082827E827E827E7E7E7E7A7E7E7E7E7A83
S11311807E7A7E7A7A7E7A767A767A7A767A767ABF
S113119076766E767676766E766E766E6E6E6E6E2B
S11311A06E6E6E6E6E6E6E6E6A6A6E6E6E6A6E6A6B
S11311B06A666A6A6A666A6A6666666266666662BB
S11311C0666262665E625E62625E5E625A5E5E5A1B
S11311D05E5E5A5A5A565A5A5A565A565652565683
S11311E056525652524E5252524E524E4E4A4E4EF3
S11311F04E4A4E4A464A4A4A464A46464246464667
S11312004246423E42423E423E423E363E363E3EEA
S11312103636363636363636363236363632323676
S11312202E2E32322E322E2A2E2A2E2A2E2A262AEA
S11312302A262A26222626222622261A221A222272
S11312401A1A1A1A1A1A1A1A1A031A1A1A031A1A28
S11312501A1A1A031A1A031A1A031A031A1A030374
S11312601A031A03031A0303031A030303030303EE
S11312700303030303030303030303030319030324
S11312801903190303191903190319190319190364
S113129019191919031919191919191919191919D0
S11312A02121212121212125252525212525292506
S11312B025292529292D29292D292D2D2D312D2D7E
S11312C0312D3135313135313531353535353535EA
S11312D035353D3535353D3D353D413D3D413D415E
S11312E041454141414145454149454549454945B6
S11312F049494D4949494D4D494D514D4D514D5126
S11313004D515155515155515551555955555559A1
S113131055595559595D5959595D595D5D59615D25
S11313205D615D5D61615D616165616161656165AD
S11313306561656965656569656965696569696D3D
S113134069696D69696D696D6D696D6D6D6D6D6DE1
S11313506D6D6D6D6D6D6D6D6D756D6D6D6D756DA9
S11313606D756D7575756D75797575797575757935
S1131370757975797579797979757D797D797979E1
S1131380797D79797D797D797D797D7D7D797D7DA5
S11313907D7D817D7D7D7D7D7D817D7D7D817D7D6D
S11313A0817D817D817D817D81817D817D81818141
S11313B07D8181817D81818181817D818181818125
S11313C081817D81818181818181818181817D8111
S11313D0818181818181817D818181817D81818101
S11313E07D8181817D81817D817D817D817D817D05
S11313F0817D7D817D7D817D7D7D7D7D7D797D7D11
S11314007D7D7D7D7D797D7D797D7D797D79797D1C
S1131410797979797D797579757979797975797544
S113142079757975757579756D75756D7575756D74
S1131430756D756D6D756D6D6D6D6D6D6D6D6D6DC0
S11314406D6D6D6D6D6D696D696D6D6D696D6969DC
S11314506D69656969656969656965696565616518
S11314606565616565616165615D61615D61615D60
S1131470615D5D5D595D5D5D595D595D59595559B4
S1131480595559595555555555515555515551510C
S1131490554D4D5151514D4D514D494D494D4D496C
S11314A0494D4549494549454945454145454541D4
S11314B0454141413D4141413D413D353D3D3D3544
S11314C03D353535353535353535353135353135C8
S11314D03531312D3131312D312D2D292D2D2D2920
S11314E02D29292529292529252525212525252194
S11314F02121192121211921191919191919191928
S1131500190319031919191919191903191919039F
S113151019031919031903190319031903031903E7
S1131520031903030303190303030303030303035B
S11315300303030303030303031A03031A03031A32
S1131540031A031A031A031A031A1A031A1A1A0398
S11315501A1A1A1A1A031A1A1A1A1A1A1A1A1A1AFE
S11315601A22222222222222262626222622262647
S11315702A2626262A262A2A2E2A2A2A2E2A2E2EC7
S1131580322E2E2E322E323236323232363236323B
S11315903636363636363636363E3636363E363ECF
S11315A03E3E3E423E3E423E424246424242424627
S11315B0424646464A4646464A464A464A4E4A4AAB
S11315C04E4A4E4A4E4E4A524E524E4E524E52522F
S11315D05256525252525652565652565A56565ABB
S11315E056565A5A565A5A5E5A5A5A5E5A5A5E5E53
S11315F05A5E5E625E5E5E625E5E62625E626262EF
S113160066626262626662626666626666666A668E
S1131610666666666A666A666A666A6A6A6A6E6A3E
S11316206A6A6A6A6E6A6A6E6A6E6A6E6E6E6A6EFA
S11316306E6E6E6E6E6E6E6E6E6E6E6E6E6E6E6EC6
S11316406E6E6E6E6E6E6E6E6E6E766E766E6E6EA6
S11316506E6E766E6E6E766E766E6E766E76766E76
S1131660766E76766E76766E767676766E76767636
S113167076766E767676767676767676767676760E
S113168076767676767676766E76767676767676FE
S1131690767676767676766E76767676766E7676F6
S11316A076766E76766E76766E766E766E766E7606
S11316B06E766E6E766E6E6E766E6E6E6E6E6E6E2E
S11316C06E6E6E6E6E6E6E6E6E6E6E6E6E6E6E6E36
S11316D06E6E6E6E6E6E6E6A6E6E6E6E6E6A6E6E2E
S11316E06A6E6A6E6A6A6A6E6A6A666A6A6A666A52
S11316F06A6A666A66666A6666666266666666667A
S11317006266626662666262625E626262625E62B1
S11317105E625E5E625E5A5E5E5E5A5E5E5A5E5AED
S11317205A5A5A565A5A5A5A565A565A5656525635
S11317305656525656525256524E5252524E525279
S11317404E4E524E4A4E4E4A4E4E4A4A4E4A464AD1
S11317504A4A464A464A4646424646464246424621
S113176042423E42423E423E423E3E363E3E3E368D
S11317703E363E36363636363636363636323636F9
S11317803632363236322E322E32322E2E322A2E45
S11317902E2A2E2A2E2A2A262A2A2A262A262622B1
S11317A026262626222226221A22221A221A1A2221
S11317B01A1A1A1A1A1A1A1A031A1A1A1A031A1AB3
S11317C01A1A1A031A1A1A031A1A031A1A031A03E8
S11317D01A031A031A031A03031A0303031A03034B
S11317E003031A03030303030303030303030303AE
S11317F0030303030319030303190303190319035D
S113180019031903190319190319190319190319C8
S1131810191919190319191919191919191919194A
S113182019192121212121212121212521212521AC
S11318302521252925252529252929252D29292D30
S1131840292D292D2D312D2D2D312D312D313531B0
S11318503131353135353135353535353535353544
S1131860353D353535353D353D3D3D413D3D3D3DD0
S1131870413D41413D454141454141454145454544
S113188049454545454945494945494D4949494DD4
S1131890494D494D494D4D514D4D514D4D514D5170
S11318A0514D515551515155515155515555555110
S11318B05559555955555559555955595959595DAC
S11318C059595959595D595D595D595D5D5D5D6160
S11318D05D5D5D5D5D615D5D615D615D6161615D1C
S11318E061616561616165616161656165616561D0
S11318F06565616565656165656965656569656594
S11319006565696565696569656965696569696567
S1131910696965696969696569696969696D696937
S1131920696969696D6969696969696D6969696D17
S11319306969696D6969696D69696D69696D696903
S1131940696D69696D69696D69696D6969696D69EF
S113195069696D696969696D6969696969696D69E7
S113196069696569696969656969696969696569EF
S113197069656969656965696569656965696565F3
S11319806569656565656561656565656561656507
S113199061656561656165616161656161615D6123
S11319A0616161615D61615D615D615D5D615D5D3F
S11319B05D595D5D5D5D5D595D595D595D59595D6B
S11319C0595955595959555959555955555955559F
S11319D055515555555551555155515155514D51D7
S11319E051514D51514D514D4D514D494D4D4D4913
S11319F04D494D494D494945494949494549454953
S1131A0045454541454545454145414145413D41A2
S1131A10413D41413D413D3D3D353D3D3D353D35FA
S1131A203D3535353535353535353535353135355E
S1131A303535313531313131312D31312D312D2D96
S1131A402D292D2D2D2D29292D29252929292529F2
S1131A502529252521252521252125212119212156
S1131A6021192119192119191919191919191903E0
S1131A701919190319191919191919031919190314
S1131A80191903191903190319031903190319035C
S1131A9019030319030319030303190303030303BA
S1131AA003030319030303030303030303030303EC
S1131AB01A0303031A03031A03031A031A031A0368
S1131AC01A031A031A031A1A031A1A031A1A1A03FC
S1131AD01A1A1A1A1A031A1A1A1A1A1A1A1A1A1A79
S1131AE01A1A1A1A222222222222221A22222622F6
S1131AF02222262226262626262A26262A262A2682
S1131B002A2E2A2A2E2A2A2E2E2A2E322E2E2E3201
S1131B102E322E3232323632323232363632363695
S1131B2036363636363636363636363E3636363649
S1131B303E363E363E3E3E423E3E3E423E3E4242C1
S1131B403E42424642424246424642464246464A55
S1131B50464646464A464A464A464A4A4A4E4A4AF9
S1131B604A4A4E4A4E4A4E4A4E4E4E524E4E4E4EA1
S1131B704E524E524E524E5252524E56525256524D
S1131B80525256525652565256565652565A565605
S1131B90565A5656565A565A565A565A5A565A5AC1
S1131BA05A5A5A5E5A5A5A5A5A5A5E5A5A5E5A5E81
S1131BB05A5E5A5E5E5A5E5E5E5A5E5E5E5E625E4D
S1131BC05E5E5E5E5E625E5E5E5E625E5E625E6221
S1131BD05E5E625E625E62625E625E62625E6262FD
S1131BE05E6262625E626262625E62626262625EE1
S1131BF062626262626262625E62626262626262C5
S1131C0062625E626262626262625E6262626262B8
S1131C105E626262625E6262625E62625E62625EB4
S1131C20625E625E625E625E625E625E5E625E5EB4
S1131C30625E5E5E5E625E5E5E5A5E5E5E5E5A5EC0
S1131C405E5E5E5A5E5E5A5E5A5E5A5E5A5E5A5ACC
S1131C505A5E5A5A5A5A565A5A5A5A565A5A565AE8
S1131C605A565A56565A5656565A56525656565208
S1131C7056565652565256525256525252524E522C
S1131C805252524E52524E524E4E524E4E4E4A4E58
S1131C904E4E4E4A4E4A4E4A4E4A4A4A4E464A468C
S1131CA04A4A4A464A464A464646464246464646C0
S1131CB042464642424642423E42423E42423E4200
S1131CC03E423E3E363E3E3E363E3E363E3636365C
S1131CD036363636363636363636363632363236A8
S1131CE0363236323632322E3232322E32322E2ED4
S1131CF0322E2A2E2E2A2E2E2A2A2E2A2A262A2A24
S1131D002A262A262A262622262626222622262273
S1131D10221A222222221A221A1A221A1A1A1A1AE7
S1131D201A1A1A1A1A1A031A1A1A031A1A1A1A1A3D
S1131D301A1A031A1A1A031A1A1A031A031A1A0372
S1131D401A031A031A031A031A031A03031A0303BE
S1131D501A0303031A03030303031A03030303030A
S1131D600303030303030303030303030303190329
S1131D7003031903031903031903190319031903AB
S1131D801903190319031919031919031919190343
S1131D9019191919190319191919191919191919C5
S1131DA0191919191919192121212119192121196F
S1131DB021252121212521212525212529252529E3
S1131DC0252529252929252D292D2929292D292D7F
S1131DD02D2D29312D312D2D312D312D313131350F
S1131DE031313135313135353135353535353535B7
S1131DF035353535353535353D3535353D35353D77
S1131E00353D3D3D35413D413D3D3D413D413D41FA
S1131E10413D41414541414145414145414545419E
S1131E20454545494545454549454549454945494A
S1131E30494945494D4949494D4949494D494D4902
S1131E404D4D494D4D4D4D4951514D4D4D4D4D51BA
S1131E504D4D514D51514D51514D5151515151557E
S1131E60515151515151555151515551555155514E
S1131E705551555551555555555155555555595516
S1131E8055555555555559555555595555555955F2
S1131E9055595559555559555955595559595559CE
S1131EA055595559595559595559595559595559B6
S1131EB059595559595559595955595955595955A2
S1131EC05959595559595559595559595559555992
S1131ED0595559555955595559555955595559558E
S1131EE0555955555955555955555555555955558E
S1131EF0555155555555515555555551555555519E
S1131F0055515551555155515155515155515151A5
S1131F10514D51515151514D5151514D514D514DC1
S1131F20514D4D514D4D4D4D5149494D4D4D4D4DD9
S1131F30494D4D494D49494D4949494D4945494501
S1131F404949494945494549454549454545414525
S1131F5045454545414545414145414145413D4151
S1131F6041413D41413D413D413D3D413D353D3D89
S1131F70353D3D3D353D35353D35353535353535E5
S1131F803535353535353535353135353531353505
S1131F903131353131312D313131312D312D2D3139
S1131FA02D2D292D2D2D292D2D29292D2929252981
S1131FB029292529252925292525212525212525C1
S1131FC02125212121192121212119211921191921
S1131FD01919191919191919191919190319191983
S1131FE0031919191919191903191919190319199F
S1131FF003191903191903191903190319031903E7
S1132000190303190319030319030319030303032E
S11320101903030303031903030303030303030360
S1132020030303030303030303031A030303031A4E
S113203003031A03031A031A03031A031A031A03E2
S11320401A031A1A031A031A1A031A1A1A031A1A5F
S11320501A031A1A1A1A1A031A1A1A1A1A1A1A1A0A
S11320601A1A1A1A1A1A1A1A1A1A2222221A221AAC
S11320701A22221A2222262222222622222622263C
S113208026262A262626262A262A262A2A262A2ECC
S11320902A2A2E2A2A2E2A2E2A2E2E2E322E2E2E70
S11320A0322E2E322E3232322E3632323632323214
S11320B036323636323636363636363636363636C4
S11320C0363636363636363E36363636363E363E94
S11320D0363E363E3E3E3E423E3E3E3E3E3E423E24
S11320E0423E423E4242423E4246424246424242D0
S11320F042464246424642464646424646464A468C
S11321004646464A46464A46464A464A464A4A4A4F
S1132110464A4A4A4A4A4E4A4A4A4A4A4A4A4E4A17
S11321204A4E4A4E4A4A4E4E4A4E4A4E4E4A4E4EE7
S11321304E4E4E4A4E4E4E524E4E4E4E524E4E4EB7
S11321404E4E524E4E4E524E4E524E524E4E524E97
S1132150524E524E524E524E52524E524E52524E77
S113216052524E52524E5252524E52524E5252525B
S11321704E5252524E52524E5252524E5252524E4F
S113218052524E52524E52524E52524E52524E523F
S11321904E524E52524E524E524E4E524E524E523B
S11321A04E4E524E4E4E524E4E4E4E524E4E4E4E3F
S11321B04E4A4E4E4E4E4E4A4E4E4E4E4A4E4E4A4B
S11321C04E4E4A4E4A4E4A4A4E4A4A4E4A4A4A4A53
S11321D04E4A464A4A4A464A4A4A4A464A464A4A67
S11321E0464A46464A4646464A4646424646464287
S11321F0464646424642464246424642424242429F
S11322003E42424242423E42423E423E423E3E3EC6
S1132210423E363E3E3E363E3E3E363E363E363606
S1132220363E363636363636363636363636363642
S1132230363636323636363632363632363232364E
S113224032322E3232322E32322E322E2E322E2E86
S11322502A2E2E2E2A2E2E2A2E2A2E2A2A2A262AC2
S11322602A2A262A2A262A2626262A2226262226FA
S113227026222622262222221A222222221A221A46
S1132280221A1A1A1A1A1A1A1A1A1A1A1A1A1A1AA2
S11322901A031A1A1A1A031A1A1A1A1A1A1A031ADF
S11322A01A1A1A031A1A1A031A1A031A1A031A03FD
S11322B01A1A031A031A031A031A03031A031A0332
S11322C0031A03031A0303031A0303031A0303037E
S11322D003030303031A03030303030303030303B3
S11322E00303030303031903030319030303190378
S11322F00319030319030319031903190319031910
S113230003190319190319190319190319190319BD
S11323101919031919191919031919191919191955
S11323201919191919191919191919191919192111
S113233021191921191921211921212125212121AD
S11323402125212521252521252529252525292541
S113235029252925292925292D292D2929292D29E9
S11323602D292D2D292D2D312D2D2D312D2D312D95
S1132370312D3131312D3135313531313135313145
S11323803535313535313535353535353535353501
S1132390353535353535353535353D3535353D35D9
S11323A035353D353D353D353D3D353D3D3D3D4185
S11323B03D3D3D3D3D413D3D3D413D413D413D4135
S11323C041413D41414141414541414141414145F5
S11323D041414541414541454145454145454145C9
S11323E04545414545454545494545454545494595
S11323F04545454945454945454945454945494575
S1132400494549494549454949454949454949494C
S11324104549494945494949494945494949494934
S11324204949454949494949494949494949494520
S1132430494949494949494949494949494945490C
S11324404949494949494549494949494549494900
S11324504549494945494945494945494945494500
S113246049454945494549454549454549454549FC
S1132470454545454545494541454545414545450C
S11324804545414545414545414541454145414114
S11324904541414541414141413D41414141413D28
S11324A04141413D413D413D413D413D3D3D413D38
S11324B03D3D353D3D3D353D3D3D353D3D353D3570
S11324C0353D3535353D35353535353535353535A8
S11324D035353535353535353535313535313535B0
S11324E03531353531353131353131312D313131C8
S11324F0312D31312D312D2D312D2D2D2D292D2DF8
S11325002D2D2D292D292D29292D29292529292923
S1132510252929252925292525292521252521255B
S11325202525212521212521212119212121211997
S113253021192119192119191919191919191919EF
S11325401919191919190319031919191919191923
S11325501919190319191919031919190319191929
S11325600319190319031919031903190319031971
S113257003190319031903031903031903031903A3
S113258003190303030319030303030303190303D5
S11325900303030303030303030303030303030307
S11325A0030303031A030303031A03031A03031A9B
S11325B003031A03031A031A031A031A031A031A46
S11325C0031A031A031A1A031A1A031A1A031A1AF1
S11325D01A031A1A1A031A1A1A1A1A031A1A1A1A9C
S11325E01A1A1A1A1A1A1A1A1A1A1A1A1A1A1A1A47
S11325F01A1A1A1A221A221A1A1A221A221A222207
S11326001A22222622222226222226222626222696
S113261026262A26262626262A26262A262A2A2A3E
S1132620262A2A2E2A2A2A2E2A2A2E2A2E2A2E2AF6
S11326302E2E2E2E322E2E2E2E2E2E322E322E32A6
S11326402E32322E32323236323232323236323266
S11326503632363236363236363632363636363626
S11326603636363636363636363636363636363606
S1132670363636363E3636363E363636363E3636DE
S11326803E363E363E363E3E363E3E3E363E3E3E8E
S11326903E3E423E3E3E3E3E3E3E423E3E3E423E4A
S11326A03E423E423E423E423E423E42423E424222
S11326B03E4242423E42424242423E424242424202
S11326C046424242424242464242424242424246DA
S11326D042424242464242424642424246424242CA
S11326E046424246424246424242464242464242B2
S11326F046424246424242464242464242424642A2
S11327004242464242424642424242424642424299
S113271042424242424242423E4242424242424299
S11327204242423E424242423E42423E42423E4295
S11327303E42423E423E3E423E423E3E423E3E3E9D
S11327403E423E3E3E3E363E3E3E3E3E363E3E3EB1
S1132750363E3E363E3E363E363E36363E363636DD
S11327603E363636363636363636363636363636FD
S113277036363636363636363636363636323636F9
S11327803636363236363236363232363236323201
S11327903232322E32323232322E32322E322E3225
S11327A02E2E322E2E2E2A2E2E2E2E2E2A2E2E2A4D
S11327B02E2A2E2A2A2A2E2A2A262A2A262A2A2A71
S11327C0262A262A26262A262626222626262622A1
S11327D0262622262222262222221A222222221AD5
S11327E022221A221A221A1A1A1A1A1A1A1A1A1A25
S11327F01A1A1A1A1A1A1A1A1A1A031A1A1A031A63
S11328001A1A1A1A1A1A1A1A031A1A1A1A1A031A52
S11328101A1A031A1A031A1A031A1A031A1A031A87
S1132820031A031A031A1A03031A031A031A031ABC
S113283003031A03031A03031A0303031A03030308
S1132840031A03030303031A030303030303030326
S11328500303030303030303030303030303030344
S113286003190303030319030303190303190303DC
S1132870190303190319031903031903190319038A
S11328801919031903190319190319190319190338
S113289019191903191919190319191919190319E6
S11328A01919191919191919191919191919191994
S11328B0191919191919191919192119191919197C
S11328C0211921192119212119212125212121250C
S11328D021212521212525212525212525292525B8
S11328E02529252525292529252929252929292970
S11328F02D2929292929292D292D29292D2D292D2C
S11329002D2D292D2D312D2D2D2D312D2D2D312DEB
S1132910312D312D31312D313131313131313531AB
S1132920313131313531313531313531353531357B
S11329303531353535353535353535353535353547
S11329403535353535353535353535353535353533
S1132950353535353535353535353535353D35351B
S11329603535353D35353535353D35353D35353DF3
S113297035353D353D35353D353D353D353D3D35CB
S11329803D353D3D353D3D353D3D353D3D3D353D9B
S11329903D3D353D3D3D353D3D3D3D353D3D3D3D7B
S11329A03D353D3D3D3D3D353D3D3D3D3D353D3D6B
S11329B03D3D3D353D3D3D3D353D3D3D3D353D3D5B
S11329C03D353D3D3D353D3D353D3D353D3D353D5B
S11329D03D353D353D353D3D35353D353D353D3563
S11329E0353D353D3535353D3535353D3535353573
S11329F03535353535353535353535353535353583
S1132A003535353535353535353535353535353572
S1132A103535353535353535313535353535353566
S1132A203135353135353135313531353131353172
S1132A3031313131312D3131313131312D31312D8E
S1132A40312D312D312D2D312D2D2D2D31292D29A6
S1132A502D2D2D2D292D2D292D292D29292D2929BE
S1132A6029292925292929292925292925292529E2
S1132A70252529252525252125252525212525210A
S1132A802521252121252121211921212121211936
S1132A902121192119192119191919191919191982
S1132AA019191919191919191919191919031919A8
S1132AB019190319191919191919191903191919AE
S1132AC019190319191903191919031919031919CA
S1132AD003191903190319190319031903190319FC
S1132AE0031903190303190319030319030319032E
S1132AF0031903031903030303190303030319034A
S1132B00030303030303031903030303030303037B
S1132B100303030303030303030303031A0303036A
S1132B20031A030303031A03031A03031A03031AFE
S1132B3003031A031A03031A031A031A031A031AC0
S1132B40031A031A031A1A031A031A1A031A1A0382
S1132B501A1A1A031A1A1A031A1A1A031A1A1A1A16
S1132B601A031A1A1A1A1A1A1A1A1A1A1A1A1A1AD8
S1132B701A1A1A1A1A1A1A1A1A1A1A1A1A1A1A1AB1
S1132B801A1A221A1A1A221A1A1A221A221A222271
S1132B901A2222222226222222222222262226220D
S1132BA0262226222626262226262A262626262AC5
S1132BB026262A26262A262A2A262A2A262A2A2A8D
S1132BC02A2E2A2A2A2A2A2E2A2A2E2A2A2E2A2E4D
S1132BD02A2E2E2A2E2E2E2E2A2E2E322E2E2E3215
S1132BE02E2E2E2E322E2E322E322E322E32322EE9
S1132BF032322E323232322E3232363232323632B1
S1132C00323232323632323632323632363236328C
S1132C103632363236363236363236363636323664
S1132C203636363636363636363636363636363640
S1132C303636363636363636363636363636363630
S1132C403636363636363636363636363636363620
S1132C503636363636363636363636363636363610
S1132C603636363636363636363636363636363600
S1132C7036363636363636363636363636363636F0
S1132C8036363636363636363636363636363636E0
S1132C9036363636363636363636363636363636D0
S1132CA036323636363636323636363636363236CC
S1132CB036363236363236323632363632323632CC
S1132CC036323236323232363232323232322E32D8
S1132CD0323232323232322E3232322E322E3232DC
S1132CE02E2E322E322E2E322E2E2E2E2E322E2AF4
S1132CF02E2A2E2E2E2E2E2A2E2E2A2E2A2E2A2E04
S1132D002A2A2E2A2A2A2E2A2A262A2A2A262A2A1F
S1132D102A2A262A262A262A262A26262A26262633
S1132D202622262626262226262622262226222653
S1132D30222222262222221A2222221A2222221A83
S1132D40221A221A221A1A1A221A1A1A1A1A1A1ABF
S1132D501A1A1A1A1A1A1A1A1A1A1A1A1A1A1A03E6
S1132D601A1A1A1A1A031A1A1A1A1A1A1A1A1A03ED
S1132D701A1A1A1A1A031A1A1A031A1A1A031A1AF4
S1132D801A031A1A031A1A031A031A1A031A031A29
S1132D901A031A031A031A031A03031A031A031A47
S1132DA003031A03031A031A0303031A03031A037C
S1132DB00303031A030303031A0303030303031A9A
S1132DC003030303030303030303030303030303CF
S1132DD003030303030303030303190303030303A9
S1132DE01903030319030319030303190303190341
S1132DF01903031903190303190319031903190305
S1132E0019031903191903190319190319031919B2
S1132E100319190319191903191919031919191976
S1132E20031919191903191919191919191919193A
S1132E300319191919191919191919191919191914
S1132E4019191919191919191919192119191919E6
S1132E501921191921192119211921211921212196
S1132E60212125212121212125212125212125213E
S1132E702525212525252125252529252525252502
S1132E8029252525292529252925292529292529CE
S1132E902929252929292D29292929292D2929299A
S1132EA02D29292D29292D292D292D2D292D2D296E
S1132EB02D2D2D292D2D2D2D2D312D2D2D2D2D2D3E
S1132EC0312D2D2D2D312D2D312D2D312D312D3116
S1132ED02D312D312D312D31312D31312D313131F6
S1132EE02D31313131312D313131313131313135D2
S1132EF031313131313131313135313131313131BA
S1132F00313531313131353131313531313135319D
S1132F10313135313131353131353131313531318D
S1132F203531313135313135313131353131353179
S1132F303131353131313531313131353131313171
S1132F403531313131313135313131313131313165
S1132F50312D3131313131313131312D3131313165
S1132F60312D3131312D31312D31312D31312D3161
S1132F702D312D312D2D312D312D2D312D2D2D3165
S1132F802D2D2D2D2D2D2D292D2D2D2D2D2D2D2D71
S1132F90292D2D2D292D2D292D292D292D292D2979
S1132FA02D2929292D292929292929252929292989
S1132FB02929292529292529292529252925252995
S1132FC025252925252525252125252525252521B1
S1132FD025252125252125212521212521212121C1
S1132FE021211921212121212119212119211921ED
S1132FF0192119191921191919191919191919192D
S11330001919191919191919191919191919190342
S11330101919191919031919191919191919191932
S1133020031919191919190319191919031919194E
S11330300319190319191903191903191903190380
S11330401919031903190319031919031903190386
S113305003190319031903031903190303190303B8
S113306019030319030303190303031903030319BE
S11330700303030303190303030303030303030306
S113308019030303030303030303030303030303F6
S113309003030303031A03030303031A03030303CE
S11330A01A0303031A03031A03031A03031A030379
S11330B01A03031A031A031A03031A031A031A033B
S11330C01A031A031A031A1A031A031A1A031A03FD
S11330D01A1A031A1A031A1A1A031A1A031A1A1AA8
S11330E0031A1A1A1A031A1A1A1A1A031A1A1A1A81
S11330F01A1A1A1A031A1A1A1A1A1A1A1A1A1A1A43
S11331001A1A1A1A1A1A1A1A1A1A1A1A1A1A1A1A1B
S11331101A1A1A1A1A1A221A1A1A1A221A1A1A22F3
S11331201A1A221A221A22221A22221A22222222AB
S1133130222622222222222622222226222622225B
S11331402626222622262622262626262626262A23
S1133150262626262626262A2626262A26262A26FF
S11331602A262A262A2A262A2A262A2A2A262A2ACF
S11331702A2A2A2A2E2A2A2A2A2A2A2A2A2E2A2AA3
S11331802A2E2A2A2A2E2A2A2E2A2E2A2E2A2E2A83
S11331902E2A2E2A2E2E2A2E2E2A2E2E2A2E2E2E5F
S11331A02E2A2E2E2E2E2E2A2E2E2E2E2E2E2E2E43
S11331B02E2E322E2E2E2E2E2E2E2E2E2E2E2E3223
S11331C02E2E2E2E2E2E2E322E2E2E2E2E322E2E13
S11331D02E2E2E322E2E2E2E322E2E2E2E322E2EFF
S11331E02E2E322E2E2E2E2E322E2E2E2E322E2EEF
S11331F02E2E2E2E322E2E2E2E2E2E2E2E322E2EE3
S11332002E2E2E2E2E2E2A2E2E2E2E2E2E2E2E2AE2
S11332102E2E2E2E2E2E2E2A2E2E2E2A2E2E2E2AD6
S11332202E2E2A2E2E2A2E2A2E2E2A2E2A2E2A2ED2
S11332302A2A2E2A2A2E2A2A2E2A2A2A2E2A2A2ADA
S11332402A2A2A2A262A2A2A2A2A2A2A2A262A2AE2
S11332502A262A2A262A2A262A262A262A26262AE6
S113326026262A262626262A2626262226262622FA
S11332702626262622262622262622262226222202
S1133280262222262222222222221A22222222221A
S113329022221A22221A221A221A221A221A1A2242
S11332A01A1A1A1A1A1A1A1A1A1A1A1A1A1A1A1A7A
S11332B01A1A1A1A1A1A1A1A1A1A1A1A1A1A1A0381
S11332C01A1A1A1A1A031A1A1A1A1A1A1A1A1A1A71
S11332D01A031A1A1A1A1A1A031A1A1A1A031A1A8F
S11332E01A031A1A1A031A1A1A031A1A031A1A03AD
S11332F01A031A1A031A1A031A031A031A1A031AB4
S1133300031A031A031A031A03031A031A031A03E8
S1133310031A03031A031A0303031A03031A030306
S11333201A030303031A0303031A03030303031A0D
S11333300303030303030303031A03030303030342
S11333400303030303030303030303030303030349
S113335003030319030303030319030303031903F7
S113336003031903031903030319030319030319BB
S1133370031903031903190303190319031903197F
S11333800319031903190319031919031903191943
S1133390031903191903191903191903191919031D
S11333A019190319191903191919190319191919CB
S11333B019031919191919191903191919191919A5
S11333C01919191919191919191919191919191969
S11333D01919191919191919191919191919191959
S11333E01919191919211919191919192119192131
S11333F019192119211921192121192121212119F1
S1133400212121212521212121212521212125219C
S11334102125212125212521252125252125252178
S11334202525212525252525252525292525252548
S11334302525252525292525252925252925252928
S11334402525292529252925292529292529252908
S113345029252929292529292925292929292925E8
S113346029292929292929292929292D29292929C4
S1133470292929292929292929292D2929292929B4
S113348029292D29292929292D292929292D29299C
S113349029292D292929292D292929292D2929298C
S11334A0292D292929292D29292929292D2929297C
S11334B029292D2929292929292929292D29292970
S11334C02929292929252929292929292929252970
S11334D02929292929292529292929252929252964
S11334E02929252925292925292529252925292564
S11334F02925292525292525292525252925252564
S1133500252525252529212125252525252525256B
S11335102125252521252521252125212521252173
S11335202521212521212125212121212121192183
S11335302121212121212119212119212119211997
S113354021192119192119192119191919191919C7
S113355019191919191919191919191919191919D7
S113356019191919191919191919191919031919DD
S113357019190319191919191919191919191919CD
S113358003191919191919031919191903191919E9
S11335901903191919031919190319190319190305
S11335A0191903191903191903190319190319030B
S11335B01903191903190319031903190319030327
S11335C0190319031903031903190303190303192D
S11335D0030319030319030303190303031903035F
S11335E00303190303030319030303030303031965
S11335F00303030303030303030303030303030397
S11336000303030303030303030303030303030386
S11336100303031A030303031A030303031A030331
S1133620031A0303031A03031A03031A03031A03F3
S1133630031A031A03031A031A03031A031A031AB5
S1133640031A031A031A031A031A031A031A1A038E
S11336501A031A1A031A031A1A031A1A031A1A0350
S11336601A1A031A1A1A031A1A1A031A1A1A031A12
S11336701A1A1A031A1A1A1A1A031A1A1A1A1A1AD4
S1133680031A1A1A1A1A1A1A1A1A1A1A1A1A1A03C4
S11336901A1A1A1A1A1A1A1A1A1A1A1A1A1A1A1A86
S11336A01A1A1A1A1A1A1A1A1A1A1A1A1A1A1A1A76
S11336B01A1A1A1A1A221A1A1A1A1A221A1A1A224E
S11336C01A1A1A221A221A221A221A221A22221A1E
S11336D022221A2222221A222222222222262222D2
S11336E022222222222622222222262222222622AA
S11336F02622222622262226222622262226222686
S11337002622262622262626222626262622262665
S113371026262626262226262626262A2626262645
S113372026262A26262626262626262A262626262D
S1133730262A262626262A2626262A2626262A2615
S113374026262A2626262A26262A2626262A262605
S11337502A26262A26262A2626262A26262A2626F1
S11337602A2626262A2626262A26262A2626262AE1
S1133770262626262A262626262A26262626262AD9
S113378026262626262626262626262A26222626D5
S113379022262626262626262626262226262626CD
S11337A022262626222626262226222626222622CD
S11337B026222622262226222622222622222622C9
S11337C02222262222222222222622221A222222D5
S11337D01A2222222222221A2222221A221A2222E5
S11337E01A221A221A221A1A221A1A221A1A1A2205
S11337F01A1A1A1A1A1A1A1A1A1A1A1A1A1A1A1A25
S11338001A1A1A1A1A1A1A1A1A1A1A1A1A1A1A1A14
S11338101A1A1A1A1A1A1A1A031A1A1A1A1A031A32
S11338201A1A1A1A1A1A1A1A1A1A1A1A1A031A1A0B
S11338301A1A1A1A031A1A1A1A1A031A1A1A1A0329
S11338401A1A1A1A031A1A1A031A1A031A1A1A0330
S11338501A1A031A1A031A1A031A031A1A031A034E
S11338601A1A031A031A031A031A1A031A031A0355
S11338701A03031A031A031A031A03031A031A0373
S1133880031A03031A03031A03031A03031A030391
S11338901A0303031A030303031A030303031A0398
S11338A0030303031A03030303030303031A0303B6
S11338B003030303030303030303030303030303D4
S11338C003030303030303030303030303031903AE
S11338D00303030319030303031903030303190372
S11338E00303190303190303031903031903031936
S11338F00319030319030319031903190303190310
S113390019031903190319031903190319031903D3
S11339101919031903191903190319190319031997
S11339201903191903191919031919031919190371
S11339301919190319191903191919190319191935
S1133940191903191919191919031919191919190F
S113395019191903191919191919191919191919E9
S113396019191919191919191919191919191919C3
S113397019191919191919191919191919191919B3
S11339801919191919191919191919211919192193
S11339901919191919192119191921191921192173
S11339A01919211921192119212119211921211943
S11339B0212121192121211921212121212121190B
S11339C021212121252121212121212521212121DB
S11339D021212125212121212521212125212121C7
S11339E025212125212125212125212125212125AB
S11339F02125212125212521252125212125212597
S1133A002125212521252125212521252121252186
S1133A102521252125212521252125212521252172
S1133A202521252125212125212521252121252166
S1133A30252121252125212125212125212125215A
S1133A402125212121252121212521212121252152
S1133A502121212121212521212121211921212156
S1133A60212121211921212121212119212121195A
S1133A702121211921211921192121192119211962
S1133A80211919211921191921191919211919197A
S1133A90191921191919191919191919191919198A
S1133AA01919191919191919191919191919191982
S1133AB01919191919191919191919191919191972
S1133AC0190319191919191919031919191919198E
S1133AD01919191919191919031919191919191968
S1133AE00319191919190319191919190319191984
S1133AF003191919190319190319191903191903A0
S1133B00191919031919031903191903191903198F
S1133B1003191903190319031919031903190319AB
S1133B2003190319031903190319031903031903C7
S1133B3019030319031903031903190303190303CD
S1133B4019030303190303190303031903030319D3
S1133B5003030319030303030319030303030319EF
S1133B60030303030303030303190303030303030B
S1133B700303030303030303030303030303030311
S1133B8003030303030303030303031A03030303EA
S1133B90031A03030303031A0303031A0303031A95
S1133BA00303031A0303031A03031A03031A030385
S1133BB01A03031A031A03031A031A03031A031A30
S1133BC0031A031A03031A031A031A031A031A0320
S1133BD01A1A031A031A031A031A1A031A031A1ACB
S1133BE0031A031A1A031A1A031A1A031A1A031ABB
S1133BF01A1A031A1A031A1A1A031A1A1A031A1A7D
S1133C001A031A1A1A1A031A1A1A1A1A031A1A1A55
S1133C101A1A1A031A1A1A1A1A1A1A031A1A1A1A2E
S1133C201A1A1A1A1A1A1A1A1A031A1A1A1A1A1A07
S1133C301A1A1A1A1A1A1A1A1A1A1A1A1A1A1A1AE0
S1133C401A1A1A1A1A1A1A1A1A1A1A1A1A1A1A1AD0
S1133C501A1A1A1A1A1A1A1A1A1A1A1A1A1A1A1AC0
S1133C601A1A1A1A1A1A1A1A1A1A221A1A1A1A1AA8
S1133C701A1A1A1A221A1A1A1A1A221A1A1A221A88
S1133C801A221A1A221A1A221A1A221A221A221A60
S1133C901A221A221A221A22221A221A221A221A40
S1133CA022221A22221A221A22221A22221A222218
S1133CB01A2222221A22221A2222221A22221A2208
S1133CC022221A2222221A2222221A2222221A22F0
S1133CD022221A2222221A2222221A2222221A22E0
S1133CE0221A2222221A22221A22221A22221A22D8
S1133CF0221A22221A221A22221A221A22221A22D0
S1133D001A221A221A221A221A221A221A221A1AD7
S1133D10221A221A1A221A1A221A1A221A1A1A22CF
S1133D201A1A1A1A1A221A1A1A1A1A1A1A1A1A1AE7
S1133D301A1A1A1A1A1A1A1A1A1A1A1A1A1A1A1ADF
S1133D401A1A1A1A1A1A1A1A1A1A1A1A1A1A1A1ACF
S1133D501A1A1A1A1A1A1A1A1A1A1A1A1A1A1A1ABF
S1133D601A1A1A1A1A1A1A031A1A1A031A1A1A1ADD
S1133D701A1A1A1A1A1A1A1A1A1A1A1A1A1A1A03B6
S1133D801A1A1A1A1A1A1A1A031A1A1A1A1A1A03BD
S1133D901A1A1A1A1A031A1A1A1A031A1A1A031AC4
S1133DA01A1A1A031A1A031A1A1A031A1A1A031ACB
S1133DB01A031A1A031A1A031A1A031A031A1A03E9
S1133DC01A1A031A031A1A031A031A031A031A03F0
S1133DD01A1A031A031A031A031A031A03031A03F7
S1133DE01A031A031A03031A031A03031A03031AFE
S1133DF0031A03031A03031A0303031A03031A031C
S1133E0003031A0303031A0303031A030303031A22
S1133E1003030303031A0303030303031A03030340
S1133E2003030303030303031A0303030303030347
S1133E30030303030303030303030303030303034E
S1133E400303030303031903030303030319030312
S1133E5003030319030303031903030319030303EC
S1133E6019030303190303031903031903031903B0
S1133E70031903031903190303190303190319038A
S1133E80190303190319031903190319031903194E
S1133E90031903190319031903190319031919033E
S1133EA01903191903190319190319190319031902
S1133EB019031919031919031919190319190319DC
S1133EC019190319191903191919031919191903B6
S1133ED01919191903191919190319191919190390
S1133EE01919191919191903191919191919191954
S1133EF01903191919191919191919191919191944
S1133F001919191919031919191919191919191933
S1133F10191919191919191919191919191919190D
S1133F2019191919191919191919191919191919FD
S1133F3019191919191919191919191919191919ED
S1133F4019191919191919191919191919191919DD
S1133F5019191919191919191919191919191919CD
S1133F6019191919191921191919191919191919B5
S1133F7019192119191919191919191919191919A5
S1133F80192119191919191919191919191921198D
S1133F901919191919191919191919192119191985
S1133FA0191919191919191919191919191919197D
S1133FB0191919191919191919191919191919196D
S1133FC0191919191919191919191919191919195D
S1133FD0191919191919191919191919191919194D
S1133FE0191919191919191919191919191919193D
S1133FF0191919191919191919191919191919192D
S11340001919191919191903191919191919190348
S1134010191919191919191919191919191919190C
S11340201919031919191919191919190319191928
S11340301919191903191919191903191919191918
S11340400319191919031919191903191919031934
S11340501919031919190319190319191903191924
S11340600319190319190319190319031919031940
S11340701903190319190319031903191903190346
S1134080190319031903190319031903190319034C
S11340901903190319030319031903190303190352
S11340A01903031903031903031903031903031958
S11340B00303190303190303031903030319030374
S11340C0031903030303190303030303190303037A
S11340D00303190303030303030303190303030380
S11340E0030303030303030303030303030303039C
S11340F0030303030303030303030303030303038C
S113410003030303030303031A0303030303031A4D
S1134110030303031A030303031A0303031A030326
S1134120031A0303031A03031A0303031A03031AE8
S113413003031A03031A031A03031A03031A031AC1
S113414003031A031A031A03031A031A031A031A9A
S1134150031A031A031A031A031A031A031A031A73
S1134160031A1A031A031A031A1A031A031A1A034C
S11341701A031A1A031A1A031A1A031A1A031A1A0E
S1134180031A1A031A1A031A1A1A031A1A031A1AFE
S11341901A031A1A1A031A1A1A1A031A1A1A031AD7
S11341A01A1A1A031A1A1A1A1A031A1A1A1A1A03B0
S11341B01A1A1A1A1A031A1A1A1A1A1A1A031A1A89
S11341C01A1A1A1A1A1A1A1A031A1A1A1A1A1A1A62
S11341D01A1A1A1A1A1A1A031A1A1A1A1A1A1A1A52
S11341E01A1A1A1A1A1A1A1A1A1A1A1A1A1A1A1A2B
S11341F01A1A1A1A1A1A1A1A1A1A1A1A1A1A1A1A1B
S11342001A1A1A1A1A1A1A1A1A1A1A1A1A1A1A1A0A
S11342101A1A1A1A1A1A1A1A1A1A1A1A1A1A1A1AFA
S11342201A1A1A1A1A1A1A1A1A1A1A1A1A1A1A1AEA
S11342301A1A1A1A1A1A1A1A1A1A1A1A1A1A1A1ADA
S11342401A1A1A1A1A1A1A1A1A1A1A1A1A1A1A1ACA
S11342501A1A1A1A1A1A1A1A1A1A1A1A1A1A1A1ABA
S11342601A1A1A1A1A1A1A1A1A1A1A1A1A1A1A1AAA
S11342701A1A1A1A1A1A1A1A1A1A1A1A1A1A1A1A9A
S11342801A1A1A1A1A1A1A1A1A1A1A1A1A1A1A1A8A
S11342901A1A1A1A1A1A1A1A1A1A1A1A031A031AA8
S11342A01A1A1A1A1A1A1A1A1A1A1A1A1A1A1A1A6A
S11342B01A1A1A1A1A1A1A1A1A1A1A1A031A1A1A71
S11342C01A1A1A1A1A1A1A1A031A1A1A1A1A1A1A61
S11342D01A031A1A1A1A1A1A1A031A1A1A1A1A037F
S11342E01A1A1A1A1A031A1A1A1A031A1A1A1A036F
S11342F01A1A1A1A031A1A1A031A1A1A031A1A1A5F
S1134300031A1A031A1A1A031A1A031A1A031A1A7C
S1134310031A1A031A1A031A1A031A1A031A031A83
S11343201A031A031A1A031A031A031A1A031A038A
S11343301A031A031A031A031A031A031A031A0391
S11343401A031A031A031A031A03031A031A031A81
S113435003031A031A03031A03031A03031A031A9F
S113436003031A0303031A03031A03031A030303BD
S11343701A0303031A0303031A030303031A0303AD
S113438003031A03030303031A0303030303031AB4
S1134390030303030303030303031A0303030303D2
S11343A003030303030303030303030303030303D9
S11343B003030303030303030303030303030303C9
S11343C0030303190303030303031903030303038D
S11343D01903030303190303030319030303190351
S11343E00303190303031903031903030319030341
S11343F01903031903031903031903031903190305
S113440003190319030319031903190303190319DE
S113441003190319031903031903190319031919B8
S113442003190319031903190319031919031903A8
S1134430190319190319031919031903191903196C
S11344401903191903191903191903191903191946
S11344500319190319190319191903191919031936
S11344601919031919190319191903191919031910
S113447019191903191919190319191919031919EA
S113448019191903191919191919031919191919C4
S113449019031919191919191903191919191919B4
S11344A019190319191919191919191919190319A4
S11344B0191919191919191919191919190319197E
S11344C01919191919191919191919191919191958
S11344D0191919191919031919191919191919195E
S11344E01919191919191919191919191919191938
S11344F01919191919191919191919191919191928
S11345001919191919191919191919191919191917
S1134510191919191919191919191919191919031D
S113452019191919191919191919191919191919F7
S113453019191919191919191919191919191903FD
S113454019191919191919191919191919191919D7
S113455003191919191919191919191919031919F3
S113456019191919191919031919191919191903E3
S113457019191919191919031919191919031919D3
S113458019191903191919191903191919190319D9
S113459019191903191919031919191903191919C9
S11345A003191919031919190319190319191903E5
S11345B019190319190319191903191903191903D5
S11345C019031919031919031919031903191903DB
S11345D019031919031903190319190319031903E1
S11345E019031919031903190319031903190319D1
S11345F003190319030319031903190319030319ED
S113460003190319030319030319031903031903F2
S113461003190319030319030303190303190303F8
S113462019030303190303190303031903030303FE
S113463019030303190303030319030303030319EE
S1134640030303030303190303030303030319030A
S11346500303030303030303030303030303031910
S11346600303030303030303030303030303030316
S11346700303030303030303030303031A030303EF
S1134680030303031A0303030303031A03030303C8
S1134690031A030303031A030303031A0303031A8A
S11346A00303031A0303031A03031A0303031A037A
S11346B0031A03031A03031A03031A03031A030353
S11346C01A031A03031A031A03031A031A03031A15
S11346D0031A031A031A03031A031A031A031A0305
S11346E01A031A031A031A031A031A031A031A03DE
S11346F01A1A031A031A031A1A031A031A031A1AA0
S1134700031A031A1A031A031A1A031A1A031A03A6
S11347101A1A031A1A031A1A031A1A031A1A031A68
S11347201A1A031A1A031A1A031A1A1A031A1A0358
S11347301A1A1A031A1A1A031A1A1A031A1A1A0331
S11347401A1A1A1A031A1A1A031A1A1A1A031A1A0A
S11347501A1A031A1A1A1A031A1A1A1A1A031A1AFA
S11347601A1A1A031A1A1A1A1A031A1A1A1A1A03EA
S11347701A1A1A1A1A1A031A1A1A1A1A1A1A031AC3
S11347801A1A1A1A1A1A031A1A1A1A1A1A1A1A03B3
S11347901A1A1A1A1A1A1A1A031A1A1A1A1A1A1A8C
S11347A01A1A031A1A1A1A1A1A1A1A1A031A1A1A93
S11347B01A1A1A1A1A1A1A031A1A1A1A1A1A1A1A6C
S11347C01A1A031A1A1A1A1A1A1A1A1A031A1A1A73
S11347D01A1A1A1A1A1A1A031A1A1A1A1A1A1A1A4C
S11347E01A031A1A1A1A1A1A1A1A031A1A1A1A1A53
S11347F01A1A1A031A1A1A1A1A1A1A031A1A1A1A43
S11348001A1A1A031A1A1A1A1A1A031A1A1A1A1A32
S1134810031A1A1A1A1A1A031A1A1A1A1A031A1A39
S11348201A1A031A1A1A1A031A1A1A1A031A1A1A29
S11348301A031A1A1A1A031A1A1A031A1A1A1A0330
S11348401A1A1A031A1A1A031A1A031A1A1A031A20
S11348501A1A031A1A031A1A031A1A1A031A1A0327
S11348601A1A031A1A031A1A031A1A031A1A031A17
S1134870031A1A031A1A031A031A1A031A031A1A1E
S1134880031A031A1A031A031A031A031A1A031A25
S1134890031A031A031A031A031A031A031A031A2C
S11348A0031A031A031A031A03031A031A031A0333
S11348B01A03031A031A03031A031A03031A031A23
S11348C003031A03031A03031A03031A03031A0341
S11348D0031A03031A0303031A03031A0303031A31
S11348E00303031A030303031A0303031A0303034F
S11348F0031A03030303031A0303030303031A033F
S11349000303030303031A0303030303030303035C
S113491003031A030303030303030303030303034C
S11349200303030303030303030303030303030353
S1134930030303030303030303030303190303032D
S11349400303030319030303030303190303030307
S113495003190303030319030303031903030319CB
S113496003030319030303190303031903031903BB
S11349700303190303190303190303190303190395
S1134980031903190303190303190319030319036F
S11349901903031903190319030319031903190349
S11349A01903190303190319031903190319031923
S11349B00319031903191903190319031903190313
S11349C019190319031903191903190319031919D7
S11349D003190319190319190319031919031919C7
S11349E003191903190319190319190319190319B7
S11349F01919031919031919031919031919190391
S1134A00191903191919031919031919190319196A
S1134A10190319191903191919031919190319195A
S1134A20190319191919031919190319191919034A
S1134A301919191903191919031919191903191924
S1134A401919190319191919031919191903191914
S1134A501919190319191919031919191919031904
S1134A6019191919031919191919031919191919DE
S1134A7003191919191903191919191903191919E4
S1134A8019031919191919031919191919031919D4
S1134A9019191903191919191903191919190319C4
S1134AA019191919031919191903191919191903B4
S1134AB019191919031919191903191919190319A4
S1134AC01919031919191903191919190319191994
S1134AD0031919190319191919031919190319199A
S1134AE019031919031919190319191903191903A0
S1134AF0191919031919031919190319190319197A
S1134B000319190319190319190319190319190395
S1134B10191903191903191903190319190319196F
S1134B20031903191903190319190319031903198B
S1134B30190319031903191903190319031903197B
S1134B400319031903190319031903190319031981
S1134B500319031903190319031903031903190387
S1134B601903190303190319030319031903031977
S1134B700303190319030319030319030319030393
S1134B801903031903031903031903030319030383
S1134B901903030319030303190303031903030389
S1134BA0031903030303190303030319030303038F
S1134BB00319030303030303190303030303030395
S1134BC00319030303030303030303030319030385
S1134BD003030303030303030303030303030303A1
S1134BE00303030303030303030303030303030391
S1134BF00303030303030303031A0303030303036A
S1134C0003031A0303030303031A03030303031A2B
S1134C10030303031A030303031A030303031A031B
S1134C2003031A0303031A0303031A0303031A03F4
S1134C30031A0303031A03031A03031A03031A03CD
S1134C40031A03031A03031A031A03031A03031AA6
S1134C50031A03031A031A03031A031A03031A0396
S1134C601A031A031A03031A031A031A031A031A58
S1134C70031A031A031A031A031A031A031A031A48
S1134C80031A031A031A031A031A1A031A031A0338
S1134C901A031A1A031A031A031A1A031A031A1AFA
S1134CA0031A031A1A031A031A1A031A031A1A0301
S1134CB01A1A031A1A031A031A1A031A1A031A1AC3
S1134CC0031A1A031A1A031A1A031A1A031A1A03CA
S1134CD01A1A031A1A1A031A1A031A1A031A1A1A8C
S1134CE0031A1A031A1A1A031A1A031A1A1A031A93
S1134CF01A1A031A1A031A1A1A031A1A1A031A1A6C
S1134D001A031A1A1A031A1A1A031A1A1A031A1A5B
S1134D101A031A1A1A031A1A1A031A1A1A031A1A4B
S1134D201A031A1A1A031A1A1A1A031A1A1A031A3B
S1134D301A1A031A1A1A031A1A1A1A031A1A1A032B
S1134D401A1A1A031A1A1A031A1A1A031A1A1A1A04
S1134D50031A1A1A031A1A1A031A1A1A031A1A1A0B
S1134D60031A1A1A031A1A1A031A1A1A031A1A0312
S1134D701A1A1A031A1A1A031A1A1A031A1A031AEB
S1134D801A1A031A1A031A1A1A031A1A031A1A1ADB
S1134D90031A1A031A1A031A1A1A031A1A031A1AE2
S1134DA0031A1A031A1A031A1A031A1A031A1A03E9
S1134DB01A1A031A1A031A031A1A031A1A031A03D9
S1134DC01A1A031A1A031A031A1A031A031A1A03C9
S1134DD01A031A1A031A031A031A1A031A031A03D0
S1134DE01A031A1A031A031A031A031A031A031AC0
S1134DF0031A031A031A031A031A031A031A031AC7
S1134E00031A031A031A031A03031A031A031A03CD
S1134E10031A031A031A03031A031A03031A031ABD
S1134E2003031A03031A031A03031A03031A0303DB
S1134E301A03031A03031A03031A0303031A0303CB
S1134E401A03031A0303031A0303031A0303031ABB
S1134E500303031A030303031A030303031A0303D9
S1134E6003031A03030303031A0303030303031AC9
S1134E70030303030303031A0303030303030303E7
S1134E80031A0303030303030303030303030303D7
S1134E9003030303030303030303030303030303DE
S1134EA003030303030303030303030303030303CE
S1134EB003030303030303030303030319030303A8
S1134EC00303030319030303030319030303030382
S1134ED01903030303031903030319030303031946
S1134EE00303031903030319030303190303031936
S1134EF00303031903031903030319030319030326
S1134F0019030319030319030319030319030319E9
S1134F1003190303190303190319030319031903D9
S1134F2003190319031903031903190319030319B3
S1134F3003190319031903190319030319031903A3
S1134F401903190319031903190319031903191967
S1134F50031903190319031903190319031919036D
S1134F601903190319190319031903191903190347
S1134F701903191903190319190319031919031921
S1134F800319190319190319031919031919031911
S1134F900319190319190319190319190319190301
S1134FA019031919031919031919031919031919DB
S1134FB003191903191919031919031919031919CB
S1134FC003191903191903191919031919031919BB
S1134FD003191903191919031919031919031919AB
S1134FE0190319190319190319191903191903199B
S1134FF0190319191903191903191903191919038B
S1135000191903191903191919031919031919037A
S11350101919190319190319190319190319191954
S11350200319190319190319190319190319190370
S1135030191903191903191903191903191903194A
S11350401903191903191903191903191903190350
S1135050191903191903191903190319190319192A
S11350600319031919031903191903190319190346
S11350701903191903190319190319031903191920
S1135080031903190319031919031903190319033C
S11350901903190319031919031903190319031916
S11350A00319031903190319030319031903190332
S11350B01903190319031903031903190319030322
S11350C01903190319030319031903031903190312
S11350D00319030319031903031903031903031918
S11350E0030319030319030319030319030319031E
S11350F00319030303190303190303031903030324
S11351001903030319030303190303030319030313
S11351100303190303030319030303031903030319
S1135120030303190303030303031903030303031F
S1135130030319030303030303030303031903030F
S1135140030303030303030303030303030303032B
S1135150030303030303030303030303030303031B
S1135160030303030303030303030303030303030B
S113517003030303030303031A03030303030303E4
S11351801A030303030303031A03030303031A03A6
S1135190030303031A030303031A030303031A0396
S11351A003031A0303031A030303031A03031A036F
S11351B003031A0303031A03031A0303031A03035F
S11351C01A03031A03031A03031A03031A03031A21
S11351D003031A03031A03031A031A03031A030328
S11351E01A031A03031A031A03031A031A03031AEA
S11351F0031A031A03031A031A031A031A03031ADA
S1135200031A031A031A031A031A031A031A0303C9
S11352101A031A031A031A031A031A031A1A031A8B
S1135220031A031A031A031A031A031A031A1A0392
S11352301A031A031A031A031A1A031A031A031A6B
S11352401A031A031A031A1A031A031A031A1A035B
S11352501A031A1A031A031A1A031A031A1A031A34
S1135260031A1A031A031A1A031A1A031A031A1A24
S1135270031A031A1A031A1A031A1A031A031A1A14
S1135280031A1A031A031A1A031A1A031A1A031A04
S1135290031A1A031A1A031A1A031A1A031A031AF4
S11352A01A031A1A031A1A031A1A031A1A031A03E4
S11352B01A1A031A1A031A1A031A1A031A031A1ABD
S11352C0031A1A031A1A031A1A031A031A1A031AC4
S11352D01A031A1A031A031A1A031A1A031A1A03B4
S11352E01A031A1A031A1A031A031A1A031A1A03A4
S11352F01A031A1A031A031A1A031A1A031A031A94
S11353001A031A031A1A031A031A031A1A031A039A
S11353101A1A031A031A031A1A031A031A031A1A73
S1135320031A031A031A1A031A031A031A031A0391
S11353301A1A031A031A031A031A031A031A031A6A
S1135340031A031A031A031A031A031A031A031A71
S1135350031A031A031A031A031A03031A031A0378
S11353601A031A031A03031A031A031A03031A0368
S11353701A031A03031A031A03031A031A03031A58
S113538003031A031A03031A03031A03031A031A5F
S113539003031A03031A03031A03031A0303031A66
S11353A003031A03031A0303031A03031A0303036D
S11353B01A0303031A0303031A0303031A0303035D
S11353C0031A0303031A030303031A030303030364
S11353D01A030303031A0303030303031A03030354
S11353E00303031A03030303030303031A0303035B
S11353F0030303030303031A030303030303030362
S11354000303030303030303030303030303030368
S11354100303030303030303030303030303030358
S11354200303030303030303030303030303030348
S1135430030303030303190303030303030303190C
S113544003030303030319030303030303190303FC
S113545003030319030303031903030303190303D6
S113546003031903030319030303031903030319B0
S113547003030319030319030303190303031903A0
S1135480031903031903030319030319030319037A
S11354900319030319030319030319030319031954
S11354A00303190303190319030319030319031944
S11354B00303190319030319031903190303190334
S11354C0190319030319031903190319030319030E
S11354D019031903190319031903031903190319E8
S11354E003190319031903190319031903190319D8
S11354F003190319031903190319031919031903C8
S113550019031903190319031903191903190319A1
S11355100319031903191903190319031903191991
S11355200319031903191903190319031919031981
S11355300319031919031903190319190319031971
S11355401903190319031919031903191903190361
S1135550191903190319190319031903191903193B
S11355600319190319031919031903191903190341
S1135570191903190319190319031919031903191B
S11355800319190319031919031903191903190321
S113559019031919031903191903190319031919FB
S11355A00319031903191903190319031919031901
S11355B003190319190319031903190319190319F1
S11355C003190319031919031903190319031903F7
S11355D019031919031903190319031903190319D1
S11355E003190319031903190319031903190319D7
S11355F003190319031903190319031903190303DD
S113560019031903190319031903190303190319B6
S113561003190303190319031903031903190319BC
S113562003031903190303190319030319030319C2
S113563003190303190303190303190319030319B2
S113564003031903031903031903031903031903B8
S113565003031903031903031903030319030303BE
S11356601903031903030319030303190303031998
S113567003030303190303031903030303190303B4
S113568003031903030303031903030303190303A4
S113569003030303190303030303031903030303AA
S11356A0030303031903030303030303030303199A
S11356B003030303030303030303030303030303B6
S11356C00303190303030303030303030303030390
S11356D00303030303030303030303030303030396
S11356E003030303030303030303031A030303036F
S11356F00303030303031A03030303030303031A48
S11357000303030303031A0303030303031A030337
S11357100303031A030303031A03030303031A0310
S113572003031A030303031A0303031A0303030300
S11357301A0303031A0303031A03031A0303031AC2
S11357400303031A03031A03031A0303031A0303C9
S11357501A03031A03031A03031A03031A03031A8B
S113576003031A03031A03031A03031A031A030392
S11357701A03031A031A03031A031A03031A031A54
S113578003031A031A03031A031A03031A031A035B
S11357901A03031A031A031A031A03031A031A0334
S11357A01A031A03031A031A031A031A031A031A0D
S11357B0031A031A03031A031A031A031A031A0314
S11357C01A031A031A031A031A031A031A031A03ED
S11357D01A031A031A031A031A031A031A1A031AC6
S11357E0031A031A031A031A031A031A031A031ACD
S11357F01A031A031A031A031A031A031A1A031AA6
S1135800031A031A031A031A031A1A031A031A03AC
S11358101A031A1A031A031A031A031A031A1A0385
S11358201A031A031A031A031A1A031A031A031A75
S1135830031A1A031A031A031A031A031A1A031A65
S1135840031A031A031A031A1A031A031A031A036C
S11358501A031A031A1A031A031A031A031A031A45
S1135860031A031A031A1A031A031A031A031A034C
S11358701A031A031A031A031A031A031A031A033C
S11358801A031A031A031A031A031A031A031A032C
S11358901A031A031A031A031A031A031A031A031C
S11358A01A03031A031A031A031A031A03031A0323
S11358B01A031A031A03031A031A031A031A030313
S11358C01A031A03031A031A031A03031A031A0303
S11358D0031A031A03031A03031A031A03031A030A
S11358E0031A031A03031A03031A03031A03031AFA
S11358F003031A03031A03031A03031A03031A0301
S1135900031A03031A0303031A03031A0303031AF0
S113591003031A0303031A0303031A0303031A03F7
S113592003031A0303031A030303031A03030303FE
S11359301A030303031A030303031A030303031AD7
S113594003030303031A0303030303031A030303F5
S11359500303031A03030303030303031A030303E5
S1135960030303030303031A0303030303030303EC
S1135970030303030303031A0303030303030303DC
S113598003030303030303030303030303030303E3
S113599003030303030303030303030303030303D3
S11359A003030303030303030303031903030303AD
S11359B00303030303031903030303030303031987
S11359C00303030303031903030303030319030377
S11359D00303031903030303031903030303190351
S11359E00303031903030303190303031903030341
S11359F0031903030319030303190303031903031B
S1135A0003190303190303031903030319030319F4
S1135A1003031903030319030319030319030319E4
S1135A2003031903031903031903031903031903D4
S1135A3003190303190319030319030319030319AE
S1135A40031903031903190303190303190319039E
S1135A500319031903190303190319030319031978
S1135A600319030319031903190303190319031968
S1135A700303190319031903190319030319031958
S1135A800319031903190303190319031903190348
S1135A901903190319031903190319030319031922
S1135AA00319031903190319031903190319031912
S1135AB00319031903190319031903190319031902
S1135AC003190319031903190319031903190319F2
S1135AD003190319031903190319031903190319E2
S1135AE003190319031903190319031903190319D2
S1135AF019031903190319031903190319031903C2
S1135B0019031903190319031903190319031903B1
S1135B1019031903190319031903031903190319A1
S1135B200319031903190319031903190319031991
S1135B300319031903031903190319031903190397
S1135B401903190303190319031903190319030387
S1135B501903190319031903031903190319030377
S1135B601903190319030319031903190303190367
S1135B701903031903190303190319030319031957
S1135B80030319030319031903031903031903195D
S1135B900303190303190303190303190303190363
S1135BA00319030319030319030319030319030353
S1135BB01903030319030319030319030303190343
S1135BC00319030303190303031903030319030349
S1135BD00319030303190303031903030303190339
S1135BE0030319030303031903030303190303033F
S1135BF0030319030303031903030303030319032F
S1135C000303030319030303030303031903030334
S1135C100303030303190303030303030303031924
S1135C20030303030303030303030303030319032A
S1135C300303030303030303030303030303030330
S1135C400303030303030303030303030303030320
S1135C500303030303030303030303030303030310
S1135C6003030303030303030303031A03030303E9
S1135C700303030303031A030303030303031A03C2
S1135C800303030303031A0303030303031A0303B2
S1135C900303031A03030303031A030303031A038B
S1135CA00303031A030303031A030303031A03037B
S1135CB003031A0303031A0303031A0303031A0354
S1135CC003031A0303031A0303031A03031A030344
S1135CD0031A0303031A03031A03031A0303031A1D
S1135CE003031A03031A03031A03031A03031A030D
